{
  "_format": "hh-sol-artifact-1",
  "contractName": "Factory",
  "sourceName": "contracts/Factory.sol",
  "abi": [
    {
      "anonymous": false,
      "inputs": [
        {
          "indexed": true,
          "internalType": "address",
          "name": "oldAdmin",
          "type": "address"
        },
        {
          "indexed": true,
          "internalType": "address",
          "name": "newAdmin",
          "type": "address"
        }
      ],
      "name": "AdminChanged",
      "type": "event"
    },
    {
      "anonymous": false,
      "inputs": [
        {
          "indexed": true,
          "internalType": "uint24",
          "name": "fee",
          "type": "uint24"
        },
        {
          "indexed": true,
          "internalType": "int24",
          "name": "tickSpacing",
          "type": "int24"
        }
      ],
      "name": "FeeAmountEnabled",
      "type": "event"
    },
    {
      "anonymous": false,
      "inputs": [
        {
          "indexed": true,
          "internalType": "address",
          "name": "oldOwner",
          "type": "address"
        },
        {
          "indexed": true,
          "internalType": "address",
          "name": "newOwner",
          "type": "address"
        }
      ],
      "name": "OwnerChanged",
      "type": "event"
    },
    {
      "anonymous": false,
      "inputs": [
        {
          "indexed": true,
          "internalType": "address",
          "name": "token0",
          "type": "address"
        },
        {
          "indexed": true,
          "internalType": "address",
          "name": "token1",
          "type": "address"
        },
        {
          "indexed": true,
          "internalType": "uint24",
          "name": "fee",
          "type": "uint24"
        },
        {
          "indexed": false,
          "internalType": "int24",
          "name": "tickSpacing",
          "type": "int24"
        },
        {
          "indexed": false,
          "internalType": "address",
          "name": "pool",
          "type": "address"
        }
      ],
      "name": "PoolCreated",
      "type": "event"
    },
    {
      "anonymous": false,
      "inputs": [
        {
          "indexed": true,
          "internalType": "address",
          "name": "oldImplementation",
          "type": "address"
        },
        {
          "indexed": true,
          "internalType": "address",
          "name": "newImplementation",
          "type": "address"
        }
      ],
      "name": "ProxyImplementationChanged",
      "type": "event"
    },
    {
      "inputs": [],
      "name": "PoolImplementation",
      "outputs": [
        {
          "internalType": "address",
          "name": "",
          "type": "address"
        }
      ],
      "stateMutability": "view",
      "type": "function"
    },
    {
      "inputs": [],
      "name": "PoolImplementationAdmin",
      "outputs": [
        {
          "internalType": "address",
          "name": "",
          "type": "address"
        }
      ],
      "stateMutability": "view",
      "type": "function"
    },
    {
      "inputs": [
        {
          "internalType": "address",
          "name": "tokenA",
          "type": "address"
        },
        {
          "internalType": "address",
          "name": "tokenB",
          "type": "address"
        },
        {
          "internalType": "uint24",
          "name": "fee",
          "type": "uint24"
        }
      ],
      "name": "createPool",
      "outputs": [
        {
          "internalType": "address",
          "name": "pool",
          "type": "address"
        }
      ],
      "stateMutability": "nonpayable",
      "type": "function"
    },
    {
      "inputs": [
        {
          "internalType": "uint24",
          "name": "fee",
          "type": "uint24"
        },
        {
          "internalType": "int24",
          "name": "tickSpacing",
          "type": "int24"
        }
      ],
      "name": "enableFeeAmount",
      "outputs": [],
      "stateMutability": "nonpayable",
      "type": "function"
    },
    {
      "inputs": [
        {
          "internalType": "uint24",
          "name": "",
          "type": "uint24"
        }
      ],
      "name": "feeAmountTickSpacing",
      "outputs": [
        {
          "internalType": "int24",
          "name": "",
          "type": "int24"
        }
      ],
      "stateMutability": "view",
      "type": "function"
    },
    {
      "inputs": [
        {
          "internalType": "address",
          "name": "",
          "type": "address"
        },
        {
          "internalType": "address",
          "name": "",
          "type": "address"
        },
        {
          "internalType": "uint24",
          "name": "",
          "type": "uint24"
        }
      ],
      "name": "getPool",
      "outputs": [
        {
          "internalType": "address",
          "name": "",
          "type": "address"
        }
      ],
      "stateMutability": "view",
      "type": "function"
    },
    {
      "inputs": [
        {
          "internalType": "address",
          "name": "_PoolImplementation",
          "type": "address"
        },
        {
          "internalType": "address",
          "name": "_PoolImplementationAdmin",
          "type": "address"
        }
      ],
      "name": "initialize",
      "outputs": [],
      "stateMutability": "nonpayable",
      "type": "function"
    },
    {
      "inputs": [],
      "name": "owner",
      "outputs": [
        {
          "internalType": "address",
          "name": "",
          "type": "address"
        }
      ],
      "stateMutability": "view",
      "type": "function"
    },
    {
      "inputs": [],
      "name": "parameters",
      "outputs": [
        {
          "internalType": "address",
          "name": "factory",
          "type": "address"
        },
        {
          "internalType": "address",
          "name": "token0",
          "type": "address"
        },
        {
          "internalType": "address",
          "name": "token1",
          "type": "address"
        },
        {
          "internalType": "uint24",
          "name": "fee",
          "type": "uint24"
        },
        {
          "internalType": "int24",
          "name": "tickSpacing",
          "type": "int24"
        }
      ],
      "stateMutability": "view",
      "type": "function"
    },
    {
      "inputs": [
        {
          "internalType": "address",
          "name": "_owner",
          "type": "address"
        }
      ],
      "name": "setOwner",
      "outputs": [],
      "stateMutability": "nonpayable",
      "type": "function"
    },
    {
      "inputs": [
        {
          "internalType": "address",
          "name": "_PoolImplementation",
          "type": "address"
        }
      ],
      "name": "setPoolImplementation",
      "outputs": [],
      "stateMutability": "nonpayable",
      "type": "function"
    },
    {
      "inputs": [
        {
          "internalType": "address",
          "name": "_admin",
          "type": "address"
        }
      ],
      "name": "setPoolImplementationAdmin",
      "outputs": [],
      "stateMutability": "nonpayable",
      "type": "function"
    }
  ],
  "bytecode": "0x608060405234801561001057600080fd5b5061190e806100206000396000f3fe60806040523480156200001157600080fd5b5060043610620000e85760003560e01c80638a7c195f116200008d578063cec205331162000063578063cec2053314620002ad578063d0d3403314620002d6578063d6f7489814620002e057620000e8565b80638a7c195f14620002365780638da5cb5b1462000264578063a1671295146200026e57620000e8565b8063485cc95511620000c3578063485cc95514620001af57806367f749b914620001e05780638903573014620001ea57620000e8565b806313af403514620000ed5780631698ee82146200011857806322afcccb1462000173575b600080fd5b62000116600480360360208110156200010557600080fd5b50356001600160a01b031662000309565b005b62000157600480360360608110156200013057600080fd5b5080356001600160a01b03908116916020810135909116906040013562ffffff166200037d565b604080516001600160a01b039092168252519081900360200190f35b62000198600480360360208110156200018b57600080fd5b503562ffffff16620003a9565b6040805160029290920b8252519081900360200190f35b6200011660048036036040811015620001c757600080fd5b506001600160a01b0381358116916020013516620003be565b6200015762000607565b620001f462000616565b604080516001600160a01b0396871681529486166020860152929094168383015262ffffff16606083015260029290920b608082015290519081900360a00190f35b62000116600480360360408110156200024e57600080fd5b5062ffffff813516906020013560020b62000672565b620001576200073a565b62000157600480360360608110156200028657600080fd5b5080356001600160a01b03908116916020810135909116906040013562ffffff1662000749565b6200011660048036036020811015620002c557600080fd5b50356001600160a01b031662000a13565b6200015762000a87565b6200011660048036036020811015620002f857600080fd5b50356001600160a01b031662000a96565b6004546001600160a01b031633146200032157600080fd5b6004546040516001600160a01b038084169216907fb532073b38c83145e3e5135377a08bf9aab55bc0fd7c1179cd4fb995d2a5159c90600090a3600480546001600160a01b0319166001600160a01b0392909216919091179055565b60086020908152600093845260408085208252928452828420905282529020546001600160a01b031681565b60076020526000908152604090205460020b81565b600054610100900460ff1680620003da5750620003da62000b0a565b80620003e9575060005460ff16155b620004265760405162461bcd60e51b815260040180806020018281038252602e815260200180620018d4602e913960400191505060405180910390fd5b600054610100900460ff1615801562000452576000805460ff1961ff0019909116610100171660011790555b600580546001600160a01b03199081166001600160a01b03868116919091179092556006805482169285169290921790915560048054339216821790556040516000907fb532073b38c83145e3e5135377a08bf9aab55bc0fd7c1179cd4fb995d2a5159c908290a36101f4600081815260076020527fcaa8003d360f6fd293f7cf930568a66e4dea1ae9008f37b4c98f20cc44133ccb805462ffffff1916600a9081179091556040519092917fc66a3fdf07232cdd185febcc6579d408c241b47ae2f9907d84be655141eeaecc91a3610bb8600081815260076020527f2918d3e53c8e0bf317edd7ae8c62fe39545d7d602785947d3a700ce4c956b1b6805462ffffff1916603c9081179091556040519092917fc66a3fdf07232cdd185febcc6579d408c241b47ae2f9907d84be655141eeaecc91a3612710600081815260076020527f9da3bf7239bcfcdabf6882e253256676b54f675e5430ca9fd05d9cf9b031db03805462ffffff191660c89081179091556040519092917fc66a3fdf07232cdd185febcc6579d408c241b47ae2f9907d84be655141eeaecc91a3801562000602576000805461ff00191690555b505050565b6006546001600160a01b031681565b600154600280546003546001600160a01b0393841693918216929181169162ffffff7401000000000000000000000000000000000000000083041691770100000000000000000000000000000000000000000000009004900b85565b6004546001600160a01b031633146200068a57600080fd5b620f42408262ffffff16106200069f57600080fd5b60008160020b138015620006b757506140008160020b125b620006c157600080fd5b62ffffff8216600090815260076020526040902054600290810b900b15620006e857600080fd5b62ffffff828116600081815260076020526040808220805462ffffff1916600287900b958616179055517fc66a3fdf07232cdd185febcc6579d408c241b47ae2f9907d84be655141eeaecc9190a35050565b6004546001600160a01b031681565b6000826001600160a01b0316846001600160a01b03161415620007b3576040805162461bcd60e51b815260206004820152600b60248201527f657175616c20746f6b656e000000000000000000000000000000000000000000604482015290519081900360640190fd5b600080846001600160a01b0316866001600160a01b031610620007d8578486620007db565b85855b90925090506001600160a01b0382166200083c576040805162461bcd60e51b815260206004820152601560248201527f7a65726f2061646472657373206f6620746f6b656e0000000000000000000000604482015290519081900360640190fd5b62ffffff8416600090815260076020526040902054600290810b9081900b620008ac576040805162461bcd60e51b815260206004820152601160248201527f7469636b2073706163696e67207a65726f000000000000000000000000000000604482015290519081900360640190fd5b6001600160a01b0383811660009081526008602090815260408083208685168452825280832062ffffff8a168452909152902054161562000934576040805162461bcd60e51b815260206004820152601560248201527f616c7265616479206465706c6f79656420706f6f6c0000000000000000000000604482015290519081900360640190fd5b60065460055462000957916001600160a01b0390811691163086868a8762000b1d565b6001600160a01b03808516600081815260086020818152604080842089871680865290835281852062ffffff8e168087529084528286208054988a166001600160a01b0319998a1681179091558287529484528286208787528452828620818752845294829020805490971684179096558051600289900b815291820192909252815195995091947f783cca1c0412dd0d695e784568c96da2e9c22ff989357a2e8b1d9b2b4e6b71189281900390910190a45050509392505050565b6004546001600160a01b0316331462000a2b57600080fd5b6006546040516001600160a01b038084169216907f7e644d79422f17c01e4894b5f4f588d331ebfa28653d42ae832dc59e38c9798f90600090a3600680546001600160a01b0319166001600160a01b0392909216919091179055565b6005546001600160a01b031681565b6004546001600160a01b0316331462000aae57600080fd5b6005546040516001600160a01b038084169216907f3ffa213d46c9ab493b7c9392a5be7509a620bb7d92250872d9b28d0b96485d3690600090a3600580546001600160a01b0319166001600160a01b0392909216919091179055565b600062000b173062000c5c565b15905090565b600084848460405160200180846001600160a01b03168152602001836001600160a01b031681526020018262ffffff168152602001935050505060405160208183030381529060405280519060200120878960405162000b7d9062000c62565b6001600160a01b0392831681529116602082015260606040808301829052600091830182905251839281900360800191f590508015801562000bc3573d6000803e3d6000fd5b506040805163331a223d60e21b81526001600160a01b0389811660048301528881166024830152878116604483015262ffffff87166064830152600286900b608483015291519293509083169163cc6888f49160a48082019260009290919082900301818387803b15801562000c3857600080fd5b505af115801562000c4d573d6000803e3d6000fd5b50505050979650505050505050565b3b151590565b610c638062000c718339019056fe608060405260405162000c6338038062000c63833981810160405260608110156200002957600080fd5b815160208301516040808501805191519395929483019291846401000000008211156200005557600080fd5b9083019060208201858111156200006b57600080fd5b82516401000000008111828201881017156200008657600080fd5b82525081516020918201929091019080838360005b83811015620000b55781810151838201526020016200009b565b50505050905090810190601f168015620000e35780820380516001836020036101000a031916815260200191505b5060405250849150829050620000f98262000137565b8051156200011a57620001188282620001ae60201b620003941760201c565b505b50620001239050565b6200012e82620001dd565b505050620003be565b6200014d816200020160201b620003c01760201c565b6200018a5760405162461bcd60e51b815260040180806020018281038252603681526020018062000c076036913960400191505060405180910390fd5b7f360894a13ba1a3210667c828492db98dca3e2076cc3735a920a3ca505d382bbc55565b6060620001d6838360405180606001604052806027815260200162000be06027913962000207565b9392505050565b7fb53127684a568b3173ae13b9f8a6016e243e63b6e8ee1178d6a717850b5d610355565b3b151590565b6060620002148462000201565b620002515760405162461bcd60e51b815260040180806020018281038252602681526020018062000c3d6026913960400191505060405180910390fd5b600080856001600160a01b0316856040518082805190602001908083835b60208310620002905780518252601f1990920191602091820191016200026f565b6001836020036101000a038019825116818451168082178552505050505050905001915050600060405180830381855af49150503d8060008114620002f2576040519150601f19603f3d011682016040523d82523d6000602084013e620002f7565b606091505b5090925090506200030a82828662000314565b9695505050505050565b6060831562000325575081620001d6565b825115620003365782518084602001fd5b8160405162461bcd60e51b81526004018080602001828103825283818151815260200191508051906020019080838360005b838110156200038257818101518382015260200162000368565b50505050905090810190601f168015620003b05780820380516001836020036101000a031916815260200191505b509250505060405180910390fd5b61081280620003ce6000396000f3fe60806040526004361061005e5760003560e01c80635c60da1b116100435780635c60da1b146101285780638f28397014610159578063f851a4401461018c5761006d565b80633659cfe6146100755780634f1ef286146100a85761006d565b3661006d5761006b6101a1565b005b61006b6101a1565b34801561008157600080fd5b5061006b6004803603602081101561009857600080fd5b50356001600160a01b03166101bb565b61006b600480360360408110156100be57600080fd5b6001600160a01b0382351691908101906040810160208201356401000000008111156100e957600080fd5b8201836020820111156100fb57600080fd5b8035906020019184600183028401116401000000008311171561011d57600080fd5b5090925090506101f5565b34801561013457600080fd5b5061013d610272565b604080516001600160a01b039092168252519081900360200190f35b34801561016557600080fd5b5061006b6004803603602081101561017c57600080fd5b50356001600160a01b03166102af565b34801561019857600080fd5b5061013d610369565b6101a96103c6565b6101b96101b4610426565b61044b565b565b6101c361046f565b6001600160a01b0316336001600160a01b031614156101ea576101e581610494565b6101f2565b6101f26101a1565b50565b6101fd61046f565b6001600160a01b0316336001600160a01b031614156102655761021f83610494565b61025f8383838080601f01602080910402602001604051908101604052809392919081815260200183838082843760009201919091525061039492505050565b5061026d565b61026d6101a1565b505050565b600061027c61046f565b6001600160a01b0316336001600160a01b031614156102a45761029d610426565b90506102ac565b6102ac6101a1565b90565b6102b761046f565b6001600160a01b0316336001600160a01b031614156101ea576001600160a01b0381166103155760405162461bcd60e51b815260040180806020018281038252603a815260200180610707603a913960400191505060405180910390fd5b7f7e644d79422f17c01e4894b5f4f588d331ebfa28653d42ae832dc59e38c9798f61033e61046f565b604080516001600160a01b03928316815291841660208301528051918290030190a16101e5816104d4565b600061037361046f565b6001600160a01b0316336001600160a01b031614156102a45761029d61046f565b60606103b98383604051806060016040528060278152602001610741602791396104f8565b9392505050565b3b151590565b6103ce61046f565b6001600160a01b0316336001600160a01b0316141561041e5760405162461bcd60e51b81526004018080602001828103825260428152602001806107c46042913960600191505060405180910390fd5b6101b96101b9565b7f360894a13ba1a3210667c828492db98dca3e2076cc3735a920a3ca505d382bbc5490565b3660008037600080366000845af43d6000803e80801561046a573d6000f35b3d6000fd5b7fb53127684a568b3173ae13b9f8a6016e243e63b6e8ee1178d6a717850b5d61035490565b61049d816105fa565b6040516001600160a01b038216907fbc7cd75a20ee27fd9adebab32041f755214dbc6bffa90cc0225b39da2e5c2d3b90600090a250565b7fb53127684a568b3173ae13b9f8a6016e243e63b6e8ee1178d6a717850b5d610355565b6060610503846103c0565b61053e5760405162461bcd60e51b815260040180806020018281038252602681526020018061079e6026913960400191505060405180910390fd5b600080856001600160a01b0316856040518082805190602001908083835b6020831061057b5780518252601f19909201916020918201910161055c565b6001836020036101000a038019825116818451168082178552505050505050905001915050600060405180830381855af49150503d80600081146105db576040519150601f19603f3d011682016040523d82523d6000602084013e6105e0565b606091505b50915091506105f0828286610662565b9695505050505050565b610603816103c0565b61063e5760405162461bcd60e51b81526004018080602001828103825260368152602001806107686036913960400191505060405180910390fd5b7f360894a13ba1a3210667c828492db98dca3e2076cc3735a920a3ca505d382bbc55565b606083156106715750816103b9565b8251156106815782518084602001fd5b8160405162461bcd60e51b81526004018080602001828103825283818151815260200191508051906020019080838360005b838110156106cb5781810151838201526020016106b3565b50505050905090810190601f1680156106f85780820380516001836020036101000a031916815260200191505b509250505060405180910390fdfe5472616e73706172656e745570677261646561626c6550726f78793a206e65772061646d696e20697320746865207a65726f2061646472657373416464726573733a206c6f772d6c6576656c2064656c65676174652063616c6c206661696c65645570677261646561626c6550726f78793a206e657720696d706c656d656e746174696f6e206973206e6f74206120636f6e7472616374416464726573733a2064656c65676174652063616c6c20746f206e6f6e2d636f6e74726163745472616e73706172656e745570677261646561626c6550726f78793a2061646d696e2063616e6e6f742066616c6c6261636b20746f2070726f787920746172676574a164736f6c6343000706000a416464726573733a206c6f772d6c6576656c2064656c65676174652063616c6c206661696c65645570677261646561626c6550726f78793a206e657720696d706c656d656e746174696f6e206973206e6f74206120636f6e7472616374416464726573733a2064656c65676174652063616c6c20746f206e6f6e2d636f6e7472616374496e697469616c697a61626c653a20636f6e747261637420697320616c726561647920696e697469616c697a6564a164736f6c6343000706000a",
  "linkReferences": {},
  "deployedLinkReferences": {}
}