{
    "_format": "hh-sol-artifact-1",
    "contractName": "Pool",
    "sourceName": "contracts/Pool.sol",
    "abi": [
        {
            "anonymous": false,
            "inputs": [
                {
                    "indexed": true,
                    "internalType": "address",
                    "name": "owner",
                    "type": "address"
                },
                {
                    "indexed": true,
                    "internalType": "int24",
                    "name": "tickLower",
                    "type": "int24"
                },
                {
                    "indexed": true,
                    "internalType": "int24",
                    "name": "tickUpper",
                    "type": "int24"
                },
                {
                    "indexed": false,
                    "internalType": "uint128",
                    "name": "amount",
                    "type": "uint128"
                },
                {
                    "indexed": false,
                    "internalType": "uint256",
                    "name": "amount0",
                    "type": "uint256"
                },
                {
                    "indexed": false,
                    "internalType": "uint256",
                    "name": "amount1",
                    "type": "uint256"
                }
            ],
            "name": "Burn",
            "type": "event"
        },
        {
            "anonymous": false,
            "inputs": [
                {
                    "indexed": true,
                    "internalType": "address",
                    "name": "owner",
                    "type": "address"
                },
                {
                    "indexed": false,
                    "internalType": "address",
                    "name": "recipient",
                    "type": "address"
                },
                {
                    "indexed": true,
                    "internalType": "int24",
                    "name": "tickLower",
                    "type": "int24"
                },
                {
                    "indexed": true,
                    "internalType": "int24",
                    "name": "tickUpper",
                    "type": "int24"
                },
                {
                    "indexed": false,
                    "internalType": "uint128",
                    "name": "amount0",
                    "type": "uint128"
                },
                {
                    "indexed": false,
                    "internalType": "uint128",
                    "name": "amount1",
                    "type": "uint128"
                }
            ],
            "name": "Collect",
            "type": "event"
        },
        {
            "anonymous": false,
            "inputs": [
                {
                    "indexed": true,
                    "internalType": "address",
                    "name": "sender",
                    "type": "address"
                },
                {
                    "indexed": true,
                    "internalType": "address",
                    "name": "recipient",
                    "type": "address"
                },
                {
                    "indexed": false,
                    "internalType": "uint128",
                    "name": "amount0",
                    "type": "uint128"
                },
                {
                    "indexed": false,
                    "internalType": "uint128",
                    "name": "amount1",
                    "type": "uint128"
                }
            ],
            "name": "CollectProtocol",
            "type": "event"
        },
        {
            "anonymous": false,
            "inputs": [
                {
                    "indexed": true,
                    "internalType": "address",
                    "name": "sender",
                    "type": "address"
                },
                {
                    "indexed": true,
                    "internalType": "address",
                    "name": "recipient",
                    "type": "address"
                },
                {
                    "indexed": false,
                    "internalType": "uint256",
                    "name": "amount0",
                    "type": "uint256"
                },
                {
                    "indexed": false,
                    "internalType": "uint256",
                    "name": "amount1",
                    "type": "uint256"
                },
                {
                    "indexed": false,
                    "internalType": "uint256",
                    "name": "paid0",
                    "type": "uint256"
                },
                {
                    "indexed": false,
                    "internalType": "uint256",
                    "name": "paid1",
                    "type": "uint256"
                }
            ],
            "name": "Flash",
            "type": "event"
        },
        {
            "anonymous": false,
            "inputs": [
                {
                    "indexed": false,
                    "internalType": "uint16",
                    "name": "observationCardinalityNextOld",
                    "type": "uint16"
                },
                {
                    "indexed": false,
                    "internalType": "uint16",
                    "name": "observationCardinalityNextNew",
                    "type": "uint16"
                }
            ],
            "name": "IncreaseObservationCardinalityNext",
            "type": "event"
        },
        {
            "anonymous": false,
            "inputs": [
                {
                    "indexed": false,
                    "internalType": "uint160",
                    "name": "sqrtPriceX96",
                    "type": "uint160"
                },
                {
                    "indexed": false,
                    "internalType": "int24",
                    "name": "tick",
                    "type": "int24"
                }
            ],
            "name": "Initialize",
            "type": "event"
        },
        {
            "anonymous": false,
            "inputs": [
                {
                    "indexed": false,
                    "internalType": "address",
                    "name": "sender",
                    "type": "address"
                },
                {
                    "indexed": true,
                    "internalType": "address",
                    "name": "owner",
                    "type": "address"
                },
                {
                    "indexed": true,
                    "internalType": "int24",
                    "name": "tickLower",
                    "type": "int24"
                },
                {
                    "indexed": true,
                    "internalType": "int24",
                    "name": "tickUpper",
                    "type": "int24"
                },
                {
                    "indexed": false,
                    "internalType": "uint128",
                    "name": "amount",
                    "type": "uint128"
                },
                {
                    "indexed": false,
                    "internalType": "uint256",
                    "name": "amount0",
                    "type": "uint256"
                },
                {
                    "indexed": false,
                    "internalType": "uint256",
                    "name": "amount1",
                    "type": "uint256"
                }
            ],
            "name": "Mint",
            "type": "event"
        },
        {
            "anonymous": false,
            "inputs": [
                {
                    "indexed": false,
                    "internalType": "uint8",
                    "name": "feeProtocol0Old",
                    "type": "uint8"
                },
                {
                    "indexed": false,
                    "internalType": "uint8",
                    "name": "feeProtocol1Old",
                    "type": "uint8"
                },
                {
                    "indexed": false,
                    "internalType": "uint8",
                    "name": "feeProtocol0New",
                    "type": "uint8"
                },
                {
                    "indexed": false,
                    "internalType": "uint8",
                    "name": "feeProtocol1New",
                    "type": "uint8"
                }
            ],
            "name": "SetFeeProtocol",
            "type": "event"
        },
        {
            "anonymous": false,
            "inputs": [
                {
                    "indexed": true,
                    "internalType": "address",
                    "name": "sender",
                    "type": "address"
                },
                {
                    "indexed": true,
                    "internalType": "address",
                    "name": "recipient",
                    "type": "address"
                },
                {
                    "indexed": false,
                    "internalType": "int256",
                    "name": "amount0",
                    "type": "int256"
                },
                {
                    "indexed": false,
                    "internalType": "int256",
                    "name": "amount1",
                    "type": "int256"
                },
                {
                    "indexed": false,
                    "internalType": "uint160",
                    "name": "sqrtPriceX96",
                    "type": "uint160"
                },
                {
                    "indexed": false,
                    "internalType": "uint128",
                    "name": "liquidity",
                    "type": "uint128"
                },
                {
                    "indexed": false,
                    "internalType": "int24",
                    "name": "tick",
                    "type": "int24"
                }
            ],
            "name": "Swap",
            "type": "event"
        },
        {
            "inputs": [
                {
                    "internalType": "int24",
                    "name": "tickLower",
                    "type": "int24"
                },
                {
                    "internalType": "int24",
                    "name": "tickUpper",
                    "type": "int24"
                },
                {
                    "internalType": "uint128",
                    "name": "amount",
                    "type": "uint128"
                }
            ],
            "name": "burn",
            "outputs": [
                {
                    "internalType": "uint256",
                    "name": "amount0",
                    "type": "uint256"
                },
                {
                    "internalType": "uint256",
                    "name": "amount1",
                    "type": "uint256"
                }
            ],
            "stateMutability": "nonpayable",
            "type": "function"
        },
        {
            "inputs": [
                {
                    "internalType": "address",
                    "name": "recipient",
                    "type": "address"
                },
                {
                    "internalType": "int24",
                    "name": "tickLower",
                    "type": "int24"
                },
                {
                    "internalType": "int24",
                    "name": "tickUpper",
                    "type": "int24"
                },
                {
                    "internalType": "uint128",
                    "name": "amount0Requested",
                    "type": "uint128"
                },
                {
                    "internalType": "uint128",
                    "name": "amount1Requested",
                    "type": "uint128"
                }
            ],
            "name": "collect",
            "outputs": [
                {
                    "internalType": "uint128",
                    "name": "amount0",
                    "type": "uint128"
                },
                {
                    "internalType": "uint128",
                    "name": "amount1",
                    "type": "uint128"
                }
            ],
            "stateMutability": "nonpayable",
            "type": "function"
        },
        {
            "inputs": [
                {
                    "internalType": "address",
                    "name": "recipient",
                    "type": "address"
                },
                {
                    "internalType": "uint128",
                    "name": "amount0Requested",
                    "type": "uint128"
                },
                {
                    "internalType": "uint128",
                    "name": "amount1Requested",
                    "type": "uint128"
                }
            ],
            "name": "collectProtocol",
            "outputs": [
                {
                    "internalType": "uint128",
                    "name": "amount0",
                    "type": "uint128"
                },
                {
                    "internalType": "uint128",
                    "name": "amount1",
                    "type": "uint128"
                }
            ],
            "stateMutability": "nonpayable",
            "type": "function"
        },
        {
            "inputs": [],
            "name": "factory",
            "outputs": [
                {
                    "internalType": "address",
                    "name": "",
                    "type": "address"
                }
            ],
            "stateMutability": "view",
            "type": "function"
        },
        {
            "inputs": [],
            "name": "fee",
            "outputs": [
                {
                    "internalType": "uint24",
                    "name": "",
                    "type": "uint24"
                }
            ],
            "stateMutability": "view",
            "type": "function"
        },
        {
            "inputs": [],
            "name": "feeGrowthGlobal0X128",
            "outputs": [
                {
                    "internalType": "uint256",
                    "name": "",
                    "type": "uint256"
                }
            ],
            "stateMutability": "view",
            "type": "function"
        },
        {
            "inputs": [],
            "name": "feeGrowthGlobal1X128",
            "outputs": [
                {
                    "internalType": "uint256",
                    "name": "",
                    "type": "uint256"
                }
            ],
            "stateMutability": "view",
            "type": "function"
        },
        {
            "inputs": [
                {
                    "internalType": "address",
                    "name": "recipient",
                    "type": "address"
                },
                {
                    "internalType": "uint256",
                    "name": "amount0",
                    "type": "uint256"
                },
                {
                    "internalType": "uint256",
                    "name": "amount1",
                    "type": "uint256"
                },
                {
                    "internalType": "bytes",
                    "name": "data",
                    "type": "bytes"
                }
            ],
            "name": "flash",
            "outputs": [],
            "stateMutability": "nonpayable",
            "type": "function"
        },
        {
            "inputs": [
                {
                    "internalType": "uint16",
                    "name": "observationCardinalityNext",
                    "type": "uint16"
                }
            ],
            "name": "increaseObservationCardinalityNext",
            "outputs": [],
            "stateMutability": "nonpayable",
            "type": "function"
        },
        {
            "inputs": [
                {
                    "internalType": "uint160",
                    "name": "sqrtPriceX96",
                    "type": "uint160"
                }
            ],
            "name": "initialize",
            "outputs": [],
            "stateMutability": "nonpayable",
            "type": "function"
        },
        {
            "inputs": [
                {
                    "internalType": "address",
                    "name": "_factory",
                    "type": "address"
                },
                {
                    "internalType": "address",
                    "name": "_token0",
                    "type": "address"
                },
                {
                    "internalType": "address",
                    "name": "_token1",
                    "type": "address"
                },
                {
                    "internalType": "uint24",
                    "name": "_fee",
                    "type": "uint24"
                },
                {
                    "internalType": "int24",
                    "name": "_tickSpacing",
                    "type": "int24"
                }
            ],
            "name": "initializePool",
            "outputs": [],
            "stateMutability": "nonpayable",
            "type": "function"
        },
        {
            "inputs": [],
            "name": "liquidity",
            "outputs": [
                {
                    "internalType": "uint128",
                    "name": "",
                    "type": "uint128"
                }
            ],
            "stateMutability": "view",
            "type": "function"
        },
        {
            "inputs": [],
            "name": "maxLiquidityPerTick",
            "outputs": [
                {
                    "internalType": "uint128",
                    "name": "",
                    "type": "uint128"
                }
            ],
            "stateMutability": "view",
            "type": "function"
        },
        {
            "inputs": [
                {
                    "internalType": "address",
                    "name": "recipient",
                    "type": "address"
                },
                {
                    "internalType": "int24",
                    "name": "tickLower",
                    "type": "int24"
                },
                {
                    "internalType": "int24",
                    "name": "tickUpper",
                    "type": "int24"
                },
                {
                    "internalType": "uint128",
                    "name": "amount",
                    "type": "uint128"
                },
                {
                    "internalType": "bytes",
                    "name": "data",
                    "type": "bytes"
                }
            ],
            "name": "mint",
            "outputs": [
                {
                    "internalType": "uint256",
                    "name": "amount0",
                    "type": "uint256"
                },
                {
                    "internalType": "uint256",
                    "name": "amount1",
                    "type": "uint256"
                }
            ],
            "stateMutability": "nonpayable",
            "type": "function"
        },
        {
            "inputs": [
                {
                    "internalType": "uint256",
                    "name": "",
                    "type": "uint256"
                }
            ],
            "name": "observations",
            "outputs": [
                {
                    "internalType": "uint32",
                    "name": "blockTimestamp",
                    "type": "uint32"
                },
                {
                    "internalType": "int56",
                    "name": "tickCumulative",
                    "type": "int56"
                },
                {
                    "internalType": "uint160",
                    "name": "secondsPerLiquidityCumulativeX128",
                    "type": "uint160"
                },
                {
                    "internalType": "bool",
                    "name": "initialized",
                    "type": "bool"
                }
            ],
            "stateMutability": "view",
            "type": "function"
        },
        {
            "inputs": [
                {
                    "internalType": "uint32[]",
                    "name": "secondsAgos",
                    "type": "uint32[]"
                }
            ],
            "name": "observe",
            "outputs": [
                {
                    "internalType": "int56[]",
                    "name": "tickCumulatives",
                    "type": "int56[]"
                },
                {
                    "internalType": "uint160[]",
                    "name": "secondsPerLiquidityCumulativeX128s",
                    "type": "uint160[]"
                }
            ],
            "stateMutability": "view",
            "type": "function"
        },
        {
            "inputs": [
                {
                    "internalType": "bytes32",
                    "name": "",
                    "type": "bytes32"
                }
            ],
            "name": "positions",
            "outputs": [
                {
                    "internalType": "uint128",
                    "name": "liquidity",
                    "type": "uint128"
                },
                {
                    "internalType": "uint256",
                    "name": "feeGrowthInside0LastX128",
                    "type": "uint256"
                },
                {
                    "internalType": "uint256",
                    "name": "feeGrowthInside1LastX128",
                    "type": "uint256"
                },
                {
                    "internalType": "uint128",
                    "name": "tokensOwed0",
                    "type": "uint128"
                },
                {
                    "internalType": "uint128",
                    "name": "tokensOwed1",
                    "type": "uint128"
                }
            ],
            "stateMutability": "view",
            "type": "function"
        },
        {
            "inputs": [],
            "name": "protocolFees",
            "outputs": [
                {
                    "internalType": "uint128",
                    "name": "token0",
                    "type": "uint128"
                },
                {
                    "internalType": "uint128",
                    "name": "token1",
                    "type": "uint128"
                }
            ],
            "stateMutability": "view",
            "type": "function"
        },
        {
            "inputs": [
                {
                    "internalType": "uint8",
                    "name": "feeProtocol0",
                    "type": "uint8"
                },
                {
                    "internalType": "uint8",
                    "name": "feeProtocol1",
                    "type": "uint8"
                }
            ],
            "name": "setFeeProtocol",
            "outputs": [],
            "stateMutability": "nonpayable",
            "type": "function"
        },
        {
            "inputs": [],
            "name": "slot0",
            "outputs": [
                {
                    "internalType": "uint160",
                    "name": "sqrtPriceX96",
                    "type": "uint160"
                },
                {
                    "internalType": "int24",
                    "name": "tick",
                    "type": "int24"
                },
                {
                    "internalType": "uint16",
                    "name": "observationIndex",
                    "type": "uint16"
                },
                {
                    "internalType": "uint16",
                    "name": "observationCardinality",
                    "type": "uint16"
                },
                {
                    "internalType": "uint16",
                    "name": "observationCardinalityNext",
                    "type": "uint16"
                },
                {
                    "internalType": "uint8",
                    "name": "feeProtocol",
                    "type": "uint8"
                },
                {
                    "internalType": "bool",
                    "name": "unlocked",
                    "type": "bool"
                }
            ],
            "stateMutability": "view",
            "type": "function"
        },
        {
            "inputs": [
                {
                    "internalType": "int24",
                    "name": "tickLower",
                    "type": "int24"
                },
                {
                    "internalType": "int24",
                    "name": "tickUpper",
                    "type": "int24"
                }
            ],
            "name": "snapshotCumulativesInside",
            "outputs": [
                {
                    "internalType": "int56",
                    "name": "tickCumulativeInside",
                    "type": "int56"
                },
                {
                    "internalType": "uint160",
                    "name": "secondsPerLiquidityInsideX128",
                    "type": "uint160"
                },
                {
                    "internalType": "uint32",
                    "name": "secondsInside",
                    "type": "uint32"
                }
            ],
            "stateMutability": "view",
            "type": "function"
        },
        {
            "inputs": [
                {
                    "internalType": "address",
                    "name": "recipient",
                    "type": "address"
                },
                {
                    "internalType": "bool",
                    "name": "zeroForOne",
                    "type": "bool"
                },
                {
                    "internalType": "int256",
                    "name": "amountSpecified",
                    "type": "int256"
                },
                {
                    "internalType": "uint160",
                    "name": "sqrtPriceLimitX96",
                    "type": "uint160"
                },
                {
                    "internalType": "bytes",
                    "name": "data",
                    "type": "bytes"
                }
            ],
            "name": "swap",
            "outputs": [
                {
                    "internalType": "int256",
                    "name": "amount0",
                    "type": "int256"
                },
                {
                    "internalType": "int256",
                    "name": "amount1",
                    "type": "int256"
                }
            ],
            "stateMutability": "nonpayable",
            "type": "function"
        },
        {
            "inputs": [
                {
                    "internalType": "int16",
                    "name": "",
                    "type": "int16"
                }
            ],
            "name": "tickBitmap",
            "outputs": [
                {
                    "internalType": "uint256",
                    "name": "",
                    "type": "uint256"
                }
            ],
            "stateMutability": "view",
            "type": "function"
        },
        {
            "inputs": [],
            "name": "tickSpacing",
            "outputs": [
                {
                    "internalType": "int24",
                    "name": "",
                    "type": "int24"
                }
            ],
            "stateMutability": "view",
            "type": "function"
        },
        {
            "inputs": [
                {
                    "internalType": "int24",
                    "name": "",
                    "type": "int24"
                }
            ],
            "name": "ticks",
            "outputs": [
                {
                    "internalType": "uint128",
                    "name": "liquidityGross",
                    "type": "uint128"
                },
                {
                    "internalType": "int128",
                    "name": "liquidityNet",
                    "type": "int128"
                },
                {
                    "internalType": "uint256",
                    "name": "feeGrowthOutside0X128",
                    "type": "uint256"
                },
                {
                    "internalType": "uint256",
                    "name": "feeGrowthOutside1X128",
                    "type": "uint256"
                },
                {
                    "internalType": "int56",
                    "name": "tickCumulativeOutside",
                    "type": "int56"
                },
                {
                    "internalType": "uint160",
                    "name": "secondsPerLiquidityOutsideX128",
                    "type": "uint160"
                },
                {
                    "internalType": "uint32",
                    "name": "secondsOutside",
                    "type": "uint32"
                },
                {
                    "internalType": "bool",
                    "name": "initialized",
                    "type": "bool"
                }
            ],
            "stateMutability": "view",
            "type": "function"
        },
        {
            "inputs": [],
            "name": "token0",
            "outputs": [
                {
                    "internalType": "address",
                    "name": "",
                    "type": "address"
                }
            ],
            "stateMutability": "view",
            "type": "function"
        },
        {
            "inputs": [],
            "name": "token1",
            "outputs": [
                {
                    "internalType": "address",
                    "name": "",
                    "type": "address"
                }
            ],
            "stateMutability": "view",
            "type": "function"
        }
    ],
    "bytecode": "0x608060405234801561001057600080fd5b5061562580620000216000396000f3fe608060405234801561001057600080fd5b50600436106101b95760003560e01c806370cf754a116100f9578063cc6888f411610097578063ddca3f4311610071578063ddca3f4314610855578063f305839914610875578063f30dba931461087d578063f637731d146108ff576101b9565b8063cc6888f4146107e4578063d0c93a7c1461082e578063d21220a71461084d576101b9565b8063883bdbfd116100d3578063883bdbfd1461063e578063a34123a714610747578063a38807f214610781578063c45a0155146107dc576101b9565b806370cf754a146105d15780638206a4d1146105d957806385b6672914610601576101b9565b80633850c7bd11610166578063490e6cbc11610140578063490e6cbc1461047b5780634f1eb3d814610507578063514ea4bf146105585780635339c296146105b1576101b9565b80633850c7bd146103665780633c8a7d8d146103bf5780634614131914610461576101b9565b80631ad8b03b116101975780631ad8b03b146102b5578063252c09d7146102ec57806332148f6714610343576101b9565b80630dfe1681146101be578063128acb08146101e25780631a68650214610291575b600080fd5b6101c6610925565b604080516001600160a01b039092168252519081900360200190f35b610278600480360360a08110156101f857600080fd5b6001600160a01b0382358116926020810135151592604082013592606083013516919081019060a08101608082013564010000000081111561023957600080fd5b82018360208201111561024b57600080fd5b8035906020019184600183028401116401000000008311171561026d57600080fd5b509092509050610934565b6040805192835260208301919091528051918290030190f35b610299611484565b604080516001600160801b039092168252519081900360200190f35b6102bd611493565b60405180836001600160801b03168152602001826001600160801b031681526020019250505060405180910390f35b6103096004803603602081101561030257600080fd5b50356114ad565b6040805163ffffffff909516855260069390930b60208501526001600160a01b039091168383015215156060830152519081900360800190f35b6103646004803603602081101561035957600080fd5b503561ffff166114f3565b005b61036e6115e4565b604080516001600160a01b03909816885260029690960b602088015261ffff9485168787015292841660608701529216608085015260ff90911660a0840152151560c0830152519081900360e00190f35b610278600480360360a08110156103d557600080fd5b6001600160a01b03823516916020810135600290810b92604083013590910b916001600160801b036060820135169181019060a08101608082013564010000000081111561042257600080fd5b82018360208201111561043457600080fd5b8035906020019184600183028401116401000000008311171561045657600080fd5b509092509050611634565b6104696118f2565b60408051918252519081900360200190f35b6103646004803603608081101561049157600080fd5b6001600160a01b0382351691602081013591604082013591908101906080810160608201356401000000008111156104c857600080fd5b8201836020820111156104da57600080fd5b803590602001918460018302840111640100000000831117156104fc57600080fd5b5090925090506118f8565b6102bd600480360360a081101561051d57600080fd5b506001600160a01b03813516906020810135600290810b91604081013590910b906001600160801b0360608201358116916080013516611cfc565b6105756004803603602081101561056e57600080fd5b5035611ef4565b604080516001600160801b0396871681526020810195909552848101939093529084166060840152909216608082015290519081900360a00190f35b610469600480360360208110156105c757600080fd5b503560010b611f31565b610299611f43565b610364600480360360408110156105ef57600080fd5b5060ff81358116916020013516611f52565b6102bd6004803603606081101561061757600080fd5b506001600160a01b03813516906001600160801b0360208201358116916040013516612130565b6106ae6004803603602081101561065457600080fd5b81019060208101813564010000000081111561066f57600080fd5b82018360208201111561068157600080fd5b803590602001918460208302840111640100000000831117156106a357600080fd5b5090925090506123bf565b604051808060200180602001838103835285818151815260200191508051906020019060200280838360005b838110156106f25781810151838201526020016106da565b50505050905001838103825284818151815260200191508051906020019060200280838360005b83811015610731578181015183820152602001610719565b5050505090500194505050505060405180910390f35b6102786004803603606081101561075d57600080fd5b508035600290810b91602081013590910b90604001356001600160801b0316612447565b6107ab6004803603604081101561079757600080fd5b508035600290810b9160200135900b6125c3565b6040805160069490940b84526001600160a01b03909216602084015263ffffffff1682820152519081900360600190f35b6101c66127b2565b610364600480360360a08110156107fa57600080fd5b506001600160a01b03813581169160208101358216916040820135169062ffffff606082013516906080013560020b6127c7565b61083661294d565b6040805160029290920b8252519081900360200190f35b6101c661295d565b61085d61296c565b6040805162ffffff9092168252519081900360200190f35b61046961297e565b61089d6004803603602081101561089357600080fd5b503560020b612984565b604080516001600160801b039099168952600f9790970b602089015287870195909552606087019390935260069190910b60808601526001600160a01b031660a085015263ffffffff1660c0840152151560e083015251908190036101000190f35b6103646004803603602081101561091557600080fd5b50356001600160a01b03166129f2565b6001546001600160a01b031681565b6000808561096e576040805162461bcd60e51b8152602060048201526002602482015261415360f01b604482015290519081900360640190fd5b6040805160e0810182526004546001600160a01b0381168252600160a01b8104600290810b810b900b602083015261ffff600160b81b8204811693830193909352600160c81b810483166060830152600160d81b8104909216608082015260ff600160e81b8304811660a0830152600160f01b909204909116151560c08201819052610a27576040805162461bcd60e51b81526020600482015260036024820152624c4f4b60e81b604482015290519081900360640190fd5b87610a725780600001516001600160a01b0316866001600160a01b0316118015610a6d575073fffd8963efd1fc6a506488495d951d5263988d266001600160a01b038716105b610aa4565b80600001516001600160a01b0316866001600160a01b0316108015610aa457506401000276a36001600160a01b038716115b610adb576040805162461bcd60e51b815260206004820152600360248201526214d41360ea1b604482015290519081900360640190fd5b6004805460ff60f01b191690556040805160c08101909152600090808a610b0d5760048460a0015160ff16901c610b20565b60108460a0015160ff1681610b1e57fe5b065b60ff1681526008546001600160801b03166020820152604001610b41612b91565b63ffffffff168152602001600060060b815260200160006001600160a01b031681526020016000151581525090506000808913905060006040518060e001604052808b81526020016000815260200185600001516001600160a01b03168152602001856020015160020b81526020018c610bbd57600654610bc1565b6005545b815260200160006001600160801b0316815260200184602001516001600160801b031681525090505b805115801590610c105750886001600160a01b031681604001516001600160a01b031614155b15610fb657610c1d615587565b60408201516001600160a01b03168152606082015160028054610c4e92600a929091600160b81b9004900b8f612b95565b15156040830152600290810b810b60208301819052620d89e719910b1215610c7f57620d89e7196020820152610c9e565b6020810151620d89e860029190910b1315610c9e57620d89e860208201525b610cab8160200151612cd7565b6001600160a01b031660608201526040820151610d2a908d610ce5578b6001600160a01b031683606001516001600160a01b031611610cff565b8b6001600160a01b031683606001516001600160a01b0316105b610d0d578260600151610d0f565b8b5b60c08501518551600254600160a01b900462ffffff16613009565b60c085015260a084015260808301526001600160a01b031660408301528215610d8c57610d608160c001518260800151016131fb565b825103825260a0810151610d8290610d77906131fb565b602084015190613211565b6020830152610dc7565b610d998160a001516131fb565b825101825260c08101516080820151610dc191610db691016131fb565b60208401519061322d565b60208301525b835160ff1615610e0d576000846000015160ff168260c0015181610de757fe5b60c0840180519290910491829003905260a0840180519091016001600160801b03169052505b60c08201516001600160801b031615610e4c57610e408160c00151600160801b8460c001516001600160801b0316613243565b60808301805190910190525b80606001516001600160a01b031682604001516001600160a01b03161415610f7557806040015115610f4c578360a00151610ed657610eb4846040015160008760200151886040015188602001518a60600151600c6132f3909695949392919063ffffffff16565b6001600160a01b03166080860152600690810b900b6060850152600160a08501525b6000610f2282602001518e610eed57600554610ef3565b84608001515b8f610f02578560800151610f06565b6006545b608089015160608a015160408b01516009959493929190613486565b90508c15610f2e576000035b610f3c8360c0015182613559565b6001600160801b031660c0840152505b8b610f5b578060200151610f64565b60018160200151035b600290810b900b6060830152610fb0565b80600001516001600160a01b031682604001516001600160a01b031614610fb057610fa3826040015161360f565b600290810b900b60608301525b50610bea565b836020015160020b816060015160020b146110845760008061100486604001518660400151886020015188602001518a606001518b60800151600c61393b909695949392919063ffffffff16565b604085015160608601516004805461ffff60c81b1916600160c81b61ffff958616021761ffff60b81b1916600160b81b95909416949094029290921762ffffff60a01b1916600160a01b62ffffff60029490940b9390931692909202919091176001600160a01b0319166001600160a01b03909116179055506110a99050565b6040810151600480546001600160a01b0319166001600160a01b039092169190911790555b8060c001516001600160801b031683602001516001600160801b0316146110ef5760c0810151600880546001600160801b0319166001600160801b039092169190911790555b8a1561113f57608081015160055560a08101516001600160801b03161561113a5760a0810151600780546001600160801b031981166001600160801b03918216909301169190911790555b611185565b608081015160065560a08101516001600160801b0316156111855760a0810151600780546001600160801b03808216600160801b92839004821690940116029190911790555b8115158b15151461119e57602081015181518b036111ab565b80600001518a0381602001515b90965094508a156112d15760008512156111da576002546111da906001600160a01b03168d6000889003613af0565b60006111e4613c3e565b9050336001600160a01b031663fa483e7288888c8c6040518563ffffffff1660e01b815260040180858152602001848152602001806020018281038252848482818152602001925080828437600081840152601f19601f82011690508083019250505095505050505050600060405180830381600087803b15801561126857600080fd5b505af115801561127c573d6000803e3d6000fd5b50505050611288613c3e565b6112928289613d59565b11156112cb576040805162461bcd60e51b815260206004820152600360248201526249494160e81b604482015290519081900360640190fd5b506113e8565b60008612156112f5576001546112f5906001600160a01b03168d6000899003613af0565b60006112ff613d69565b9050336001600160a01b031663fa483e7288888c8c6040518563ffffffff1660e01b815260040180858152602001848152602001806020018281038252848482818152602001925080828437600081840152601f19601f82011690508083019250505095505050505050600060405180830381600087803b15801561138357600080fd5b505af1158015611397573d6000803e3d6000fd5b505050506113a3613d69565b6113ad8288613d59565b11156113e6576040805162461bcd60e51b815260206004820152600360248201526249494160e81b604482015290519081900360640190fd5b505b60408082015160c083015160608085015184518b8152602081018b90526001600160a01b03948516818701526001600160801b039093169183019190915260020b60808201529151908e169133917fc42079f94a6350d7e6235f29174924f928cc2ac818eb64fed8004e115fbcca679181900360a00190a350506004805460ff60f01b1916600160f01b17905550919890975095505050505050565b6008546001600160801b031681565b6007546001600160801b0380821691600160801b90041682565b600c8161ffff81106114be57600080fd5b015463ffffffff81169150640100000000810460060b90600160581b81046001600160a01b031690600160f81b900460ff1684565b600454600160f01b900460ff16611537576040805162461bcd60e51b81526020600482015260036024820152624c4f4b60e81b604482015290519081900360640190fd5b6004805460ff60f01b191690819055600160d81b900461ffff16600061155f600c8385613de3565b6004805461ffff808416600160d81b810261ffff60d81b19909316929092179092559192508316146115cc576040805161ffff80851682528316602082015281517fac49e518f90a358f652e4400164f05a5d8f7e35e7747279bc3a93dbf584e125a929181900390910190a15b50506004805460ff60f01b1916600160f01b17905550565b6004546001600160a01b03811690600160a01b810460020b9061ffff600160b81b8204811691600160c81b8104821691600160d81b8204169060ff600160e81b8204811691600160f01b90041687565b6004546000908190600160f01b900460ff1661167d576040805162461bcd60e51b81526020600482015260036024820152624c4f4b60e81b604482015290519081900360640190fd5b6004805460ff60f01b191690556001600160801b03851661169d57600080fd5b6000806116eb60405180608001604052808c6001600160a01b031681526020018b60020b81526020018a60020b81526020016116e18a6001600160801b0316613e86565b600f0b9052613e9c565b9250925050819350809250600080600086111561170d5761170a613c3e565b91505b841561171e5761171b613d69565b90505b336001600160a01b0316639f382e9b87878b8b6040518563ffffffff1660e01b815260040180858152602001848152602001806020018281038252848482818152602001925080828437600081840152601f19601f82011690508083019250505095505050505050600060405180830381600087803b1580156117a057600080fd5b505af11580156117b4573d6000803e3d6000fd5b50505050600086111561180b576117c9613c3e565b6117d38388613d59565b111561180b576040805162461bcd60e51b815260206004820152600260248201526104d360f41b604482015290519081900360640190fd5b841561185b57611819613d69565b6118238287613d59565b111561185b576040805162461bcd60e51b81526020600482015260026024820152614d3160f01b604482015290519081900360640190fd5b8960020b8b60020b8d6001600160a01b03167f7a53080ba414158be7ec69b987b5fb7d07dee101fe85488f0853ae16239d0bde338d8b8b60405180856001600160a01b03168152602001846001600160801b0316815260200183815260200182815260200194505050505060405180910390a450506004805460ff60f01b1916600160f01b17905550919890975095505050505050565b60065481565b600454600160f01b900460ff1661193c576040805162461bcd60e51b81526020600482015260036024820152624c4f4b60e81b604482015290519081900360640190fd5b6004805460ff60f01b191690556008546001600160801b03168061198b576040805162461bcd60e51b81526020600482015260016024820152601360fa1b604482015290519081900360640190fd5b6002546000906119ac908790600160a01b900462ffffff16620f42406140d4565b6002549091506000906119d0908790600160a01b900462ffffff16620f42406140d4565b905060006119dc613c3e565b905060006119e8613d69565b90508815611a0757600154611a07906001600160a01b03168b8b613af0565b8715611a2457600254611a24906001600160a01b03168b8a613af0565b336001600160a01b031663c3924ed685858a8a6040518563ffffffff1660e01b815260040180858152602001848152602001806020018281038252848482818152602001925080828437600081840152601f19601f82011690508083019250505095505050505050600060405180830381600087803b158015611aa657600080fd5b505af1158015611aba573d6000803e3d6000fd5b505050506000611ac8613c3e565b90506000611ad4613d69565b905081611ae18588613d59565b1115611b19576040805162461bcd60e51b8152602060048201526002602482015261046360f41b604482015290519081900360640190fd5b80611b248487613d59565b1115611b5c576040805162461bcd60e51b8152602060048201526002602482015261463160f01b604482015290519081900360640190fd5b8382038382038115611beb57600454600160e81b9004600f1660008115611b8f578160ff168481611b8957fe5b04611b92565b60005b90506001600160801b03811615611bc557600780546001600160801b038082168401166001600160801b03199091161790555b611bdf818503600160801b8d6001600160801b0316613243565b60058054909101905550505b8015611c765760048054600160e81b9004901c600f1660008115611c1b578160ff168381611c1557fe5b04611c1e565b60005b90506001600160801b03811615611c5057600780546001600160801b03600160801b8083048216850182160291161790555b611c6a818403600160801b8d6001600160801b0316613243565b60068054909101905550505b8d6001600160a01b0316336001600160a01b03167fbdbdb71d7860376ba52b25a5028beea23581364a40522f6bcfb86bb1f2dca6338f8f86866040518085815260200184815260200183815260200182815260200194505050505060405180910390a350506004805460ff60f01b1916600160f01b179055505050505050505050505050565b6004546000908190600160f01b900460ff16611d45576040805162461bcd60e51b81526020600482015260036024820152624c4f4b60e81b604482015290519081900360640190fd5b6004805460ff60f01b191690556000611d61600b33898961410e565b60038101549091506001600160801b0390811690861611611d825784611d91565b60038101546001600160801b03165b60038201549093506001600160801b03600160801b909104811690851611611db95783611dcf565b6003810154600160801b90046001600160801b03165b91506001600160801b03831615611e21576003810180546001600160801b031981166001600160801b03918216869003821617909155600154611e21916001600160a01b03909116908a908616613af0565b6001600160801b03821615611e74576003810180546001600160801b03600160801b808304821686900382160291811691909117909155600254611e74916001600160a01b03909116908a908516613af0565b604080516001600160a01b038a1681526001600160801b0380861660208301528416818301529051600288810b92908a900b9133917f70935338e69775456a85ddef226c395fb668b63fa0115f5f20610b388e6ca9c0919081900360600190a4506004805460ff60f01b1916600160f01b17905590969095509350505050565b600b6020526000908152604090208054600182015460028301546003909301546001600160801b0392831693919281811691600160801b90041685565b600a6020526000908152604090205481565b6003546001600160801b031681565b600454600160f01b900460ff16611f96576040805162461bcd60e51b81526020600482015260036024820152624c4f4b60e81b604482015290519081900360640190fd5b6004805460ff60f01b1916815560005460408051638da5cb5b60e01b81529051620100009092046001600160a01b031692638da5cb5b928282019260209290829003018186803b158015611fe957600080fd5b505afa158015611ffd573d6000803e3d6000fd5b505050506040513d602081101561201357600080fd5b50516001600160a01b0316331461202957600080fd5b60ff8216158061204c575060048260ff161015801561204c5750600a8260ff1611155b8015612076575060ff81161580612076575060048160ff16101580156120765750600a8160ff1611155b61207f57600080fd5b60048054610ff083831b16840160ff908116600160e81b9081027fffff00ffffffffffffffffffffffffffffffffffffffffffffffffffffffffff84161784556040805191909304600f81811683529481901c909416602082015285821681840152848216606082015291519216917f973d8d92bb299f4af6ce49b52a8adb85ae46b9f214c4c4fc06ac77401237b1339181900360800190a150506004805460ff60f01b1916600160f01b17905550565b6004546000908190600160f01b900460ff16612179576040805162461bcd60e51b81526020600482015260036024820152624c4f4b60e81b604482015290519081900360640190fd5b6004805460ff60f01b1916815560005460408051638da5cb5b60e01b81529051620100009092046001600160a01b031692638da5cb5b928282019260209290829003018186803b1580156121cc57600080fd5b505afa1580156121e0573d6000803e3d6000fd5b505050506040513d60208110156121f657600080fd5b50516001600160a01b0316331461220c57600080fd5b6007546001600160801b03908116908516116122285783612235565b6007546001600160801b03165b6007549092506001600160801b03600160801b90910481169084161161225b578261226f565b600754600160801b90046001600160801b03165b90506001600160801b038216156122dd576007546001600160801b038381169116141561229e57600019909101905b600780546001600160801b031981166001600160801b039182168590038216179091556001546122dd916001600160a01b039091169087908516613af0565b6001600160801b03811615612350576007546001600160801b03828116600160801b90920416141561230e57600019015b600780546001600160801b03600160801b808304821685900382160291811691909117909155600254612350916001600160a01b039091169087908416613af0565b604080516001600160801b0380851682528316602082015281516001600160a01b0388169233927f596b573906218d3411850b26a6b437d6c4522fdb43d2d2386263f86d50b8b151929081900390910190a36004805460ff60f01b1916600160f01b1790559094909350915050565b60608061243c6123cd612b91565b85858080602002602001604051908101604052809392919081815260200183836020028082843760009201919091525050600454600854600c95949350600160a01b820460020b925061ffff600160b81b83048116926001600160801b0390921691600160c81b900416614172565b915091509250929050565b6004546000908190600160f01b900460ff16612490576040805162461bcd60e51b81526020600482015260036024820152624c4f4b60e81b604482015290519081900360640190fd5b6004805460ff60f01b1916905560408051608081018252338152600287810b602083015286900b91810191909152600090819081906124ec90606081016124df6001600160801b038a16613e86565b600003600f0b9052613e9c565b925092509250816000039450806000039350600085118061250d5750600084115b1561254c576003830180546001600160801b038082168089018216600160801b93849004831689019092169092029091176001600160801b0319161790555b604080516001600160801b0388168152602081018790528082018690529051600289810b92908b900b9133917f0c396cd989a39f4459b5fa1aed6a9a8dcdbc45908acfd67e028cd568da98982c919081900360600190a450506004805460ff60f01b1916600160f01b179055509094909350915050565b60008060006125d285856142cc565b600285810b810b60009081526009602052604080822087840b90930b825281206003830154600681900b9367010000000000000082046001600160a01b0316928492600160d81b810463ffffffff169284929091600160f81b900460ff168061263a57600080fd5b6003820154600681900b985067010000000000000081046001600160a01b03169650600160d81b810463ffffffff169450600160f81b900460ff168061267f57600080fd5b50506040805160e0810182526004546001600160a01b0381168252600160a01b8104600290810b810b810b6020840181905261ffff600160b81b8404811695850195909552600160c81b830485166060850152600160d81b8304909416608084015260ff600160e81b8304811660a0850152600160f01b909204909116151560c08301529093508e810b91900b12159050612728575093909403965090039350900390506127ab565b8a60020b816020015160020b121561279c576000612744612b91565b602083015160408401516008546060860151939450600093849361277a93600c938893879392916001600160801b0316906132f3565b9a9003989098039b5050949096039290920396509091030392506127ab915050565b50949093039650039350900390505b9250925092565b6000546201000090046001600160a01b031681565b600054610100900460ff16806127e057506127e0614395565b806127ee575060005460ff16155b6128295760405162461bcd60e51b815260040180806020018281038252602e8152602001806155eb602e913960400191505060405180910390fd5b600054610100900460ff16158015612854576000805460ff1961ff0019909116610100171660011790555b600080546001600160a01b0380891662010000027fffffffffffffffffffff0000000000000000000000000000000000000000ffff90921691909117909155600180548783166001600160a01b0319918216179091556002805485820b62ffffff908116600160b81b027fffffffffffff000000ffffffffffffffffffffffffffffffffffffffffffffff918916600160a01b0262ffffff60a01b19968b169390951692909217949094169290921792909216179055612913826143a6565b600380546001600160801b0319166001600160801b03929092169190911790558015612945576000805461ff00191690555b505050505050565b60028054600160b81b9004900b81565b6002546001600160a01b031681565b600254600160a01b900462ffffff1681565b60055481565b60096020526000908152604090208054600182015460028301546003909301546001600160801b03831693600160801b909304600f0b9290600681900b9067010000000000000081046001600160a01b031690600160d81b810463ffffffff1690600160f81b900460ff1688565b6004546001600160a01b031615612a35576040805162461bcd60e51b8152602060048201526002602482015261414960f01b604482015290519081900360640190fd5b6000612a408261360f565b9050600080612a58612a50612b91565b600c90614410565b6040805160e0810182526001600160a01b038816808252600288810b6020808501829052600085870181905261ffff898116606088018190529089166080880181905260a0880192909252600160c09097019690965260048054600160f01b6001600160a01b0319909116871762ffffff60a01b1916600160a01b62ffffff9787900b9790971696909602959095177fffffffffff00000000ffffffffffffffffffffffffffffffffffffffffffffff16600160c81b9097029690961761ffff60d81b1916600160d81b909102177fff0000ffffffffffffffffffffffffffffffffffffffffffffffffffffffffff1692909217909355835191825281019190915281519395509193507f98636036cb66a9c19a37435efc1e90142190214e8abeb821bdba3f2990dd4c9592918290030190a150505050565b4290565b60008060008460020b8660020b81612ba957fe5b05905060008660020b128015612bd057508460020b8660020b81612bc957fe5b0760020b15155b15612bda57600019015b8315612c4f57600080612bec8361445c565b600182810b810b600090815260208d9052604090205460ff83169190911b80016000190190811680151597509294509092509085612c3157888360ff16860302612c44565b88612c3b8261446e565b840360ff168603025b965050505050612ccd565b600080612c5e8360010161445c565b91509150600060018260ff166001901b031990506000818b60008660010b60010b8152602001908152602001600020541690508060001415955085612cb057888360ff0360ff16866001010102612cc6565b8883612cbb8361450e565b0360ff168660010101025b9650505050505b5094509492505050565b60008060008360020b12612cee578260020b612cf6565b8260020b6000035b9050620d89e8811115612d34576040805162461bcd60e51b81526020600482015260016024820152601560fa1b604482015290519081900360640190fd5b600060018216612d4857600160801b612d5a565b6ffffcb933bd6fad37aa2d162d1a5940015b70ffffffffffffffffffffffffffffffffff1690506002821615612d8e576ffff97272373d413259a46990580e213a0260801c5b6004821615612dad576ffff2e50f5f656932ef12357cf3c7fdcc0260801c5b6008821615612dcc576fffe5caca7e10e4e61c3624eaa0941cd00260801c5b6010821615612deb576fffcb9843d60f6159c9db58835c9266440260801c5b6020821615612e0a576fff973b41fa98c081472e6896dfb254c00260801c5b6040821615612e29576fff2ea16466c96a3843ec78b326b528610260801c5b6080821615612e48576ffe5dee046a99a2a811c461f1969c30530260801c5b610100821615612e68576ffcbe86c7900a88aedcffc83b479aa3a40260801c5b610200821615612e88576ff987a7253ac413176f2b074cf7815e540260801c5b610400821615612ea8576ff3392b0822b70005940c7a398e4b70f30260801c5b610800821615612ec8576fe7159475a2c29b7443b29c7fa6e889d90260801c5b611000821615612ee8576fd097f3bdfd2022b8845ad8f792aa58250260801c5b612000821615612f08576fa9f746462d870fdf8a65dc1f90e061e50260801c5b614000821615612f28576f70d869a156d2a1b890bb3df62baf32f70260801c5b618000821615612f48576f31be135f97d08fd981231505542fcfa60260801c5b62010000821615612f69576f09aa508b5b7a84e1c677de54f3e99bc90260801c5b62020000821615612f89576e5d6af8dedb81196699c329225ee6040260801c5b62040000821615612fa8576d2216e584f5fa1ea926041bedfe980260801c5b62080000821615612fc5576b048a170391f7dc42444e8fa20260801c5b60008460020b1315612fe0578060001981612fdc57fe5b0490505b640100000000810615612ff4576001612ff7565b60005b60ff16602082901c0192505050919050565b60008080806001600160a01b03808916908a16101581871280159061308e5760006130428989620f42400362ffffff16620f4240613243565b90508261305b576130568c8c8c60016145f8565b613068565b6130688b8d8c6001614673565b9550858110613079578a9650613088565b6130858c8b8386614730565b96505b506130d8565b816130a5576130a08b8b8b6000614673565b6130b2565b6130b28a8c8b60006145f8565b93508388600003106130c6578995506130d8565b6130d58b8a8a6000038561477c565b95505b6001600160a01b038a811690871614821561313b578080156130f75750815b61310d57613108878d8c6001614673565b61310f565b855b955080801561311c575081155b6131325761312d878d8c60006145f8565b613134565b845b9450613185565b8080156131455750815b61315b576131568c888c60016145f8565b61315d565b855b955080801561316a575081155b6131805761317b8c888c6000614673565b613182565b845b94505b8115801561319557508860000385115b156131a1578860000394505b8180156131c057508a6001600160a01b0316876001600160a01b031614155b156131cf5785890393506131ec565b6131e9868962ffffff168a620f42400362ffffff166140d4565b93505b50505095509550955095915050565b6000600160ff1b821061320d57600080fd5b5090565b8082038281131560008312151461322757600080fd5b92915050565b8181018281121560008312151461322757600080fd5b6000808060001985870986860292508281109083900303905080613279576000841161326e57600080fd5b5082900490506132ec565b80841161328557600080fd5b6000848688096000868103871696879004966002600389028118808a02820302808a02820302808a02820302808a02820302808a02820302808a02909103029181900381900460010186841190950394909402919094039290920491909117919091029150505b9392505050565b60008063ffffffff871661339a576000898661ffff1661ffff811061331457fe5b60408051608081018252919092015463ffffffff8082168084526401000000008304600690810b810b900b6020850152600160581b83046001600160a01b031694840194909452600160f81b90910460ff16151560608301529092508a161461338657613383818a89886147c8565b90505b80602001518160400151925092505061347a565b8688036000806133af8c8c858c8c8c8c614878565b91509150816000015163ffffffff168363ffffffff1614156133e157816020015182604001519450945050505061347a565b805163ffffffff8481169116141561340957806020015181604001519450945050505061347a565b8151815160208085015190840151918390039286039163ffffffff80841692908516910360060b8161343757fe5b05028460200151018263ffffffff168263ffffffff1686604001518660400151036001600160a01b0316028161346957fe5b048560400151019650965050505050505b97509795505050505050565b600295860b860b60009081526020979097526040909620600181018054909503909455938301805490920390915560038201805463ffffffff600160d81b6001600160a01b036701000000000000008085048216909603169094027fffffffffff0000000000000000000000000000000000000000ffffffffffffff90921691909117600681810b90960390950b66ffffffffffffff1666ffffffffffffff199095169490941782810485169095039093160263ffffffff60d81b1990931692909217905554600160801b9004600f0b90565b60008082600f0b12156135be57826001600160801b03168260000384039150816001600160801b0316106135b9576040805162461bcd60e51b81526020600482015260026024820152614c5360f01b604482015290519081900360640190fd5b613227565b826001600160801b03168284019150816001600160801b03161015613227576040805162461bcd60e51b81526020600482015260026024820152614c4160f01b604482015290519081900360640190fd5b60006401000276a36001600160a01b0383161080159061364b575073fffd8963efd1fc6a506488495d951d5263988d266001600160a01b038316105b613680576040805162461bcd60e51b81526020600482015260016024820152602960f91b604482015290519081900360640190fd5b77ffffffffffffffffffffffffffffffffffffffff00000000602083901b166001600160801b03811160071b81811c67ffffffffffffffff811160061b90811c63ffffffff811160051b90811c61ffff811160041b90811c60ff8111600390811b91821c600f811160021b90811c918211600190811b92831c9790881196179094179092171790911717176080811061372157607f810383901c915061372b565b80607f0383901b91505b908002607f81811c60ff83811c9190911c800280831c81831c1c800280841c81841c1c800280851c81851c1c800280861c81861c1c800280871c81871c1c800280881c81881c1c800280891c81891c1c8002808a1c818a1c1c8002808b1c818b1c1c8002808c1c818c1c1c8002808d1c818d1c1c8002808e1c9c81901c9c909c1c80029c8d901c9e9d607f198f0160401b60c09190911c678000000000000000161760c19b909b1c674000000000000000169a909a1760c29990991c672000000000000000169890981760c39790971c671000000000000000169690961760c49590951c670800000000000000169490941760c59390931c670400000000000000169290921760c69190911c670200000000000000161760c79190911c670100000000000000161760c89190911c6680000000000000161760c99190911c6640000000000000161760ca9190911c6620000000000000161760cb9190911c6610000000000000161760cc9190911c6608000000000000161760cd9190911c66040000000000001617693627a301d71055774c8581026f028f6481ab7f045a5af012a19d003aa9198101608090811d906fdb2df09e81959a81455e260799a0632f8301901d600281810b9083900b1461392c57886001600160a01b031661391082612cd7565b6001600160a01b031611156139255781613927565b805b61392e565b815b9998505050505050505050565b6000806000898961ffff1661ffff811061395157fe5b60408051608081018252919092015463ffffffff8082168084526401000000008304600690810b810b900b6020850152600160581b83046001600160a01b031694840194909452600160f81b90910460ff1615156060830152909250891614156139c1578885925092505061347a565b8461ffff168461ffff161180156139e257506001850361ffff168961ffff16145b156139ef578391506139f3565b8491505b8161ffff168960010161ffff1681613a0757fe5b069250613a16818989896147c8565b8a8461ffff1661ffff8110613a2757fe5b825191018054602084015160408501516060909501511515600160f81b027effffffffffffffffffffffffffffffffffffffffffffffffffffffffffffff6001600160a01b03909616600160581b027fff0000000000000000000000000000000000000000ffffffffffffffffffffff60069390930b66ffffffffffffff16640100000000026affffffffffffff000000001963ffffffff90971663ffffffff199095169490941795909516929092171692909217929092161790555097509795505050505050565b604080516001600160a01b038481166024830152604480830185905283518084039091018152606490920183526020820180516001600160e01b031663a9059cbb60e01b1781529251825160009485949389169392918291908083835b60208310613b6c5780518252601f199092019160209182019101613b4d565b6001836020036101000a0380198251168184511680821785525050505050509050019150506000604051808303816000865af19150503d8060008114613bce576040519150601f19603f3d011682016040523d82523d6000602084013e613bd3565b606091505b5091509150818015613c01575080511580613c015750808060200190516020811015613bfe57600080fd5b50515b613c37576040805162461bcd60e51b81526020600482015260026024820152612a2360f11b604482015290519081900360640190fd5b5050505050565b600154604080513060248083019190915282518083039091018152604490910182526020810180516001600160e01b03166370a0823160e01b17815291518151600094859485946001600160a01b039092169391928291908083835b60208310613cb95780518252601f199092019160209182019101613c9a565b6001836020036101000a038019825116818451168082178552505050505050905001915050600060405180830381855afa9150503d8060008114613d19576040519150601f19603f3d011682016040523d82523d6000602084013e613d1e565b606091505b5091509150818015613d3257506020815110155b613d3b57600080fd5b808060200190516020811015613d5057600080fd5b50519250505090565b8082018281101561322757600080fd5b600254604080513060248083019190915282518083039091018152604490910182526020810180516001600160e01b03166370a0823160e01b17815291518151600094859485946001600160a01b0390921693919282919080838360208310613cb95780518252601f199092019160209182019101613c9a565b6000808361ffff1611613e21576040805162461bcd60e51b81526020600482015260016024820152604960f81b604482015290519081900360640190fd5b8261ffff168261ffff1611613e375750816132ec565b825b8261ffff168161ffff161015613e7d576001858261ffff1661ffff8110613e5c57fe5b01805463ffffffff191663ffffffff92909216919091179055600101613e39565b50909392505050565b80600f81900b8114613e9757600080fd5b919050565b6000806000613eb3846020015185604001516142cc565b6040805160e0810182526004546001600160a01b0381168252600160a01b8104600290810b810b900b602080840182905261ffff600160b81b8404811685870152600160c81b84048116606080870191909152600160d81b8504909116608086015260ff600160e81b8504811660a0870152600160f01b909404909316151560c085015288519089015194890151928901519394613f579491939092909190614a75565b93508460600151600f0b6000146140cc57846020015160020b816020015160020b1215613fac57613fa5613f8e8660200151612cd7565b613f9b8760400151612cd7565b8760600151614bf7565b92506140cc565b846040015160020b816020015160020b12156140a25760085460408201516001600160801b0390911690613ffe90613fe2612b91565b602085015160608601516080870151600c94939291879161393b565b6004805461ffff60c81b1916600160c81b61ffff938416021761ffff60b81b1916600160b81b93909216929092021790558151604087015161404e919061404490612cd7565b8860600151614bf7565b935061406c6140608760200151612cd7565b83516060890151614c3b565b925061407c818760600151613559565b600880546001600160801b0319166001600160801b0392909216919091179055506140cc565b6140c96140b28660200151612cd7565b6140bf8760400151612cd7565b8760600151614c3b565b91505b509193909250565b60006140e1848484613243565b9050600082806140ed57fe5b84860911156132ec57600019811061410457600080fd5b6001019392505050565b6040805160609490941b6bffffffffffffffffffffffff1916602080860191909152600293840b60e890811b60348701529290930b90911b60378401528051808403601a018152603a90930181528251928201929092206000908152929052902090565b60608060008361ffff16116141b2576040805162461bcd60e51b81526020600482015260016024820152604960f81b604482015290519081900360640190fd5b865167ffffffffffffffff811180156141ca57600080fd5b506040519080825280602002602001820160405280156141f4578160200160208202803683370190505b509150865167ffffffffffffffff8111801561420f57600080fd5b50604051908082528060200260200182016040528015614239578160200160208202803683370190505b50905060005b87518110156142bf5761426a8a8a8a848151811061425957fe5b60200260200101518a8a8a8a6132f3565b84838151811061427657fe5b6020026020010184848151811061428957fe5b60200260200101826001600160a01b03166001600160a01b03168152508260060b60060b8152505050808060010191505061423f565b5097509795505050505050565b8060020b8260020b1261430c576040805162461bcd60e51b8152602060048201526003602482015262544c5560e81b604482015290519081900360640190fd5b620d89e719600283900b121561434f576040805162461bcd60e51b8152602060048201526003602482015262544c4d60e81b604482015290519081900360640190fd5b620d89e8600282900b1315614391576040805162461bcd60e51b815260206004820152600360248201526254554d60e81b604482015290519081900360640190fd5b5050565b60006143a030614c6a565b15905090565b60008082600281900b620d89e719816143bb57fe5b05029050600083600281900b620d89e8816143d257fe5b0502905060008460020b83830360020b816143e957fe5b0560010190508062ffffff166001600160801b0380168161440657fe5b0495945050505050565b6040805160808101825263ffffffff9283168082526000602083018190529282019290925260016060909101819052835463ffffffff1916909117909116600160f81b17909155908190565b60020b600881901d9161010090910790565b600080821161447c57600080fd5b600160801b821061448f57608091821c91015b6801000000000000000082106144a757604091821c91015b64010000000082106144bb57602091821c91015b6201000082106144cd57601091821c91015b61010082106144de57600891821c91015b601082106144ee57600491821c91015b600482106144fe57600291821c91015b60028210613e9757600101919050565b600080821161451c57600080fd5b5060ff6001600160801b0382161561453757607f190161453f565b608082901c91505b67ffffffffffffffff82161561455857603f1901614560565b604082901c91505b63ffffffff82161561457557601f190161457d565b602082901c91505b61ffff82161561459057600f1901614598565b601082901c91505b60ff8216156145aa57600719016145b2565b600882901c91505b600f8216156145c457600319016145cc565b600482901c91505b60038216156145de57600119016145e6565b600282901c91505b6001821615613e975760001901919050565b6000836001600160a01b0316856001600160a01b03161115614618579293925b8161464557614640836001600160801b03168686036001600160a01b0316600160601b613243565b614668565b614668836001600160801b03168686036001600160a01b0316600160601b6140d4565b90505b949350505050565b6000836001600160a01b0316856001600160a01b03161115614693579293925b7bffffffffffffffffffffffffffffffff000000000000000000000000606084901b166001600160a01b0386860381169087166146cf57600080fd5b836146ff57866001600160a01b03166146f28383896001600160a01b0316613243565b816146f957fe5b04614725565b6147256147168383896001600160a01b03166140d4565b886001600160a01b0316614c70565b979650505050505050565b600080856001600160a01b03161161474757600080fd5b6000846001600160801b03161161475d57600080fd5b8161476f576146408585856001614c7b565b6146688585856001614d5c565b600080856001600160a01b03161161479357600080fd5b6000846001600160801b0316116147a957600080fd5b816147bb576146408585856000614d5c565b6146688585856000614c7b565b6147d06155c3565b600085600001518503905060405180608001604052808663ffffffff1681526020018263ffffffff168660020b0288602001510160060b81526020016000856001600160801b031611614824576001614826565b845b6001600160801b031673ffffffff00000000000000000000000000000000608085901b168161485157fe5b048860400151016001600160a01b0316815260200160011515815250915050949350505050565b6148806155c3565b6148886155c3565b888561ffff1661ffff811061489957fe5b60408051608081018252919092015463ffffffff81168083526401000000008204600690810b810b900b6020840152600160581b82046001600160a01b031693830193909352600160f81b900460ff161515606082015292506148fe90899089614e51565b15614936578663ffffffff16826000015163ffffffff1614156149205761347a565b8161492d838989886147c8565b9150915061347a565b888361ffff168660010161ffff168161494b57fe5b0661ffff1661ffff811061495b57fe5b60408051608081018252929091015463ffffffff811683526401000000008104600690810b810b900b60208401526001600160a01b03600160581b8204169183019190915260ff600160f81b90910416151560608201819052909250614a1257604080516080810182528a5463ffffffff811682526401000000008104600690810b810b900b6020830152600160581b81046001600160a01b031692820192909252600160f81b90910460ff161515606082015291505b614a2188836000015189614e51565b614a58576040805162461bcd60e51b815260206004820152600360248201526213d31160ea1b604482015290519081900360640190fd5b614a658989898887614f14565b9150915097509795505050505050565b6000614a84600b87878761410e565b60055460065491925090600080600f87900b15614b97576000614aa5612b91565b6004546008549192506000918291614aef91600c9186918591600160a01b810460020b9161ffff600160b81b83048116926001600160801b0390921691600160c81b9004166132f3565b6003549193509150614b1f906009908e908c908e908c908c9088908a908c906000906001600160801b03166150b4565b600354909550614b4d906009908d908c908e908c908c9088908a908c906001906001600160801b03166150b4565b93508415614b715760028054614b7191600a918f91600160b81b909104900b61529e565b8315614b935760028054614b9391600a918e91600160b81b909104900b61529e565b5050505b600080614ba960098c8c8b8a8a615304565b9092509050614bba878a84846153b0565b600089600f0b1215614be8578315614bd757614bd760098c615545565b8215614be857614be860098b615545565b50505050505095945050505050565b60008082600f0b12614c1d57614c18614c138585856001614673565b6131fb565b61466b565b614c30614c138585856000036000614673565b600003949350505050565b60008082600f0b12614c5757614c18614c1385858560016145f8565b614c30614c1385858560000360006145f8565b3b151590565b808204910615150190565b60008115614cee5760006001600160a01b03841115614cb157614cac84600160601b876001600160801b0316613243565b614cc9565b6001600160801b038516606085901b81614cc757fe5b045b9050614ce6614ce16001600160a01b03881683613d59565b615571565b91505061466b565b60006001600160a01b03841115614d1c57614d1784600160601b876001600160801b03166140d4565b614d33565b614d33606085901b6001600160801b038716614c70565b905080866001600160a01b031611614d4a57600080fd5b6001600160a01b03861603905061466b565b600082614d6a57508361466b565b7bffffffffffffffffffffffffffffffff000000000000000000000000606085901b168215614e0a576001600160a01b03861684810290858281614daa57fe5b041415614ddb57818101828110614dd957614dcf83896001600160a01b0316836140d4565b935050505061466b565b505b614e0182614dfc878a6001600160a01b03168681614df557fe5b0490613d59565b614c70565b9250505061466b565b6001600160a01b03861684810290858281614e2157fe5b04148015614e2e57508082115b614e3757600080fd5b808203614dcf614ce1846001600160a01b038b16846140d4565b60008363ffffffff168363ffffffff1611158015614e7b57508363ffffffff168263ffffffff1611155b15614e97578163ffffffff168363ffffffff16111590506132ec565b60008463ffffffff168463ffffffff1611614ebf578363ffffffff1664010000000001614ec7565b8363ffffffff165b64ffffffffff16905060008563ffffffff168463ffffffff1611614ef8578363ffffffff1664010000000001614f00565b8363ffffffff165b64ffffffffff169091111595945050505050565b614f1c6155c3565b614f246155c3565b60008361ffff168560010161ffff1681614f3a57fe5b0661ffff169050600060018561ffff16830103905060005b506002818301048961ffff87168281614f6757fe5b0661ffff8110614f7357fe5b60408051608081018252929091015463ffffffff811683526401000000008104600690810b810b900b60208401526001600160a01b03600160581b8204169183019190915260ff600160f81b90910416151560608201819052909550614fde57806001019250614f52565b898661ffff168260010181614fef57fe5b0661ffff8110614ffb57fe5b60408051608081018252929091015463ffffffff811683526401000000008104600690810b810b900b60208401526001600160a01b03600160581b8204169183019190915260ff600160f81b90910416151560608201528551909450600090615066908b908b614e51565b905080801561507f575061507f8a8a8760000151614e51565b1561508a57506150a7565b8061509a576001820392506150a1565b8160010193505b50614f52565b5050509550959350505050565b60028a810b900b600090815260208c90526040812080546001600160801b0316826150df828d613559565b9050846001600160801b0316816001600160801b0316111561512d576040805162461bcd60e51b81526020600482015260026024820152614c4f60f01b604482015290519081900360640190fd5b6001600160801b038281161590821615811415945015615203578c60020b8e60020b136151d357600183018b9055600283018a90556003830180547fffffffffff0000000000000000000000000000000000000000ffffffffffffff166701000000000000006001600160a01b038c16021766ffffffffffffff191666ffffffffffffff60068b900b161763ffffffff60d81b1916600160d81b63ffffffff8a16021790555b6003830180547effffffffffffffffffffffffffffffffffffffffffffffffffffffffffffff16600160f81b1790555b82546001600160801b0319166001600160801b0382161783558561524c5782546152479061524290600160801b9004600f90810b810b908f900b61322d565b613e86565b61526d565b825461526d9061524290600160801b9004600f90810b810b908f900b613211565b8354600f9190910b6001600160801b03908116600160801b0291161790925550909c9b505050505050505050505050565b8060020b8260020b816152ad57fe5b0760020b156152bb57600080fd5b6000806152d68360020b8560020b816152d057fe5b0561445c565b600191820b820b60009081526020979097526040909620805460ff9097169190911b90951890945550505050565b600285810b80820b60009081526020899052604080822088850b850b83529082209193849391929184918291908a900b1261534a5750506001820154600283015461535d565b8360010154880391508360020154870390505b6000808b60020b8b60020b121561537f57505060018301546002840154615392565b84600101548a0391508460020154890390505b92909803979097039b96909503949094039850939650505050505050565b6040805160a08101825285546001600160801b0390811682526001870154602083015260028701549282019290925260038601548083166060830152600160801b900490911660808201526000600f85900b61544f5781516001600160801b0316615447576040805162461bcd60e51b815260206004820152600260248201526104e560f41b604482015290519081900360640190fd5b50805161545e565b815161545b9086613559565b90505b60006154828360200151860384600001516001600160801b0316600160801b613243565b905060006154a88460400151860385600001516001600160801b0316600160801b613243565b905086600f0b6000146154cf5787546001600160801b0319166001600160801b0384161788555b60018801869055600288018590556001600160801b0382161515806154fd57506000816001600160801b0316115b1561553b576003880180546001600160801b031981166001600160801b039182168501821617808216600160801b9182900483168501909216021790555b5050505050505050565b600290810b810b6000908152602092909252604082208281556001810183905590810182905560030155565b806001600160a01b0381168114613e9757600080fd5b6040805160e081018252600080825260208201819052918101829052606081018290526080810182905260a0810182905260c081019190915290565b6040805160808101825260008082526020820181905291810182905260608101919091529056fe496e697469616c697a61626c653a20636f6e747261637420697320616c726561647920696e697469616c697a6564a164736f6c6343000706000a",
    "linkReferences": {},
    "deployedLinkReferences": {}
}